{
  "_format": "hh-sol-artifact-1",
  "contractName": "TinyBank",
  "sourceName": "contracts/TinyBank.sol",
  "abi": [
    {
      "inputs": [
        {
          "internalType": "contract IMyToken",
          "name": "_stakingToken",
          "type": "address"
        }
      ],
      "stateMutability": "nonpayable",
      "type": "constructor"
    },
    {
      "anonymous": false,
      "inputs": [
        {
          "indexed": false,
          "internalType": "address",
          "name": "from",
          "type": "address"
        },
        {
          "indexed": false,
          "internalType": "uint256",
          "name": "amount",
          "type": "uint256"
        }
      ],
      "name": "Staked",
      "type": "event"
    },
    {
      "anonymous": false,
      "inputs": [
        {
          "indexed": false,
          "internalType": "uint256",
          "name": "amount",
          "type": "uint256"
        },
        {
          "indexed": false,
          "internalType": "address",
          "name": "to",
          "type": "address"
        }
      ],
      "name": "Withdraw",
      "type": "event"
    },
    {
      "inputs": [
        {
          "internalType": "address",
          "name": "",
          "type": "address"
        }
      ],
      "name": "lastClaimedBlock",
      "outputs": [
        {
          "internalType": "uint256",
          "name": "",
          "type": "uint256"
        }
      ],
      "stateMutability": "view",
      "type": "function"
    },
    {
      "inputs": [],
      "name": "manager",
      "outputs": [
        {
          "internalType": "address",
          "name": "",
          "type": "address"
        }
      ],
      "stateMutability": "view",
      "type": "function"
    },
    {
      "inputs": [],
      "name": "owner",
      "outputs": [
        {
          "internalType": "address",
          "name": "",
          "type": "address"
        }
      ],
      "stateMutability": "view",
      "type": "function"
    },
    {
      "inputs": [
        {
          "internalType": "uint256",
          "name": "_amount",
          "type": "uint256"
        }
      ],
      "name": "setRewardPerBlock",
      "outputs": [],
      "stateMutability": "nonpayable",
      "type": "function"
    },
    {
      "inputs": [
        {
          "internalType": "uint256",
          "name": "_amount",
          "type": "uint256"
        }
      ],
      "name": "stake",
      "outputs": [],
      "stateMutability": "nonpayable",
      "type": "function"
    },
    {
      "inputs": [
        {
          "internalType": "address",
          "name": "",
          "type": "address"
        }
      ],
      "name": "staked",
      "outputs": [
        {
          "internalType": "uint256",
          "name": "",
          "type": "uint256"
        }
      ],
      "stateMutability": "view",
      "type": "function"
    },
    {
      "inputs": [],
      "name": "stakingToken",
      "outputs": [
        {
          "internalType": "contract IMyToken",
          "name": "",
          "type": "address"
        }
      ],
      "stateMutability": "view",
      "type": "function"
    },
    {
      "inputs": [],
      "name": "totalStaked",
      "outputs": [
        {
          "internalType": "uint256",
          "name": "",
          "type": "uint256"
        }
      ],
      "stateMutability": "view",
      "type": "function"
    },
    {
      "inputs": [
        {
          "internalType": "uint256",
          "name": "_amount",
          "type": "uint256"
        }
      ],
      "name": "withdraw",
      "outputs": [],
      "stateMutability": "nonpayable",
      "type": "function"
    }
  ],
  "bytecode": "0x6080604052670de0b6b3a764000060045534801561001c57600080fd5b506040516110e83803806110e8833981810160405281019061003e9190610188565b3333816000806101000a81548173ffffffffffffffffffffffffffffffffffffffff021916908373ffffffffffffffffffffffffffffffffffffffff16021790555080600160006101000a81548173ffffffffffffffffffffffffffffffffffffffff021916908373ffffffffffffffffffffffffffffffffffffffff160217905550505080600260006101000a81548173ffffffffffffffffffffffffffffffffffffffff021916908373ffffffffffffffffffffffffffffffffffffffff160217905550600454600581905550506101b5565b600080fd5b600073ffffffffffffffffffffffffffffffffffffffff82169050919050565b600061014382610118565b9050919050565b600061015582610138565b9050919050565b6101658161014a565b811461017057600080fd5b50565b6000815190506101828161015c565b92915050565b60006020828403121561019e5761019d610113565b5b60006101ac84828501610173565b91505092915050565b610f24806101c46000396000f3fe608060405234801561001057600080fd5b50600436106100935760003560e01c80638da5cb5b116100665780638da5cb5b1461010e57806398807d841461012c578063a694fc3a1461015c578063bb872b4a14610178578063c19e82d51461019457610093565b80632e1a7d4d14610098578063481c6a75146100b457806372f702f3146100d2578063817b1cd2146100f0575b600080fd5b6100b260048036038101906100ad9190610a2b565b6101c4565b005b6100bc610558565b6040516100c99190610a99565b60405180910390f35b6100da61057e565b6040516100e79190610b13565b60405180910390f35b6100f86105a4565b6040516101059190610b3d565b60405180910390f35b6101166105aa565b6040516101239190610a99565b60405180910390f35b61014660048036038101906101419190610b84565b6105ce565b6040516101539190610b3d565b60405180910390f35b61017660048036038101906101719190610a2b565b6105e6565b005b610192600480360381019061018d9190610a2b565b61093e565b005b6101ae60048036038101906101a99190610b84565b6109d8565b6040516101bb9190610b3d565b60405180910390f35b336000600660008373ffffffffffffffffffffffffffffffffffffffff1673ffffffffffffffffffffffffffffffffffffffff168152602001908152602001600020541115610357576000600360008373ffffffffffffffffffffffffffffffffffffffff1673ffffffffffffffffffffffffffffffffffffffff168152602001908152602001600020544361025a9190610be0565b90506000600754600660008573ffffffffffffffffffffffffffffffffffffffff1673ffffffffffffffffffffffffffffffffffffffff16815260200190815260200160002054600554846102af9190610c14565b6102b99190610c14565b6102c39190610c85565b9050600260009054906101000a900473ffffffffffffffffffffffffffffffffffffffff1673ffffffffffffffffffffffffffffffffffffffff166394bf804d82856040518363ffffffff1660e01b8152600401610322929190610cb6565b600060405180830381600087803b15801561033c57600080fd5b505af1158015610350573d6000803e3d6000fd5b5050505050505b43600360008373ffffffffffffffffffffffffffffffffffffffff1673ffffffffffffffffffffffffffffffffffffffff1681526020019081526020016000208190555081600660003373ffffffffffffffffffffffffffffffffffffffff1673ffffffffffffffffffffffffffffffffffffffff16815260200190815260200160002054101561041d576040517f08c379a000000000000000000000000000000000000000000000000000000000815260040161041490610d3c565b60405180910390fd5b600260009054906101000a900473ffffffffffffffffffffffffffffffffffffffff1673ffffffffffffffffffffffffffffffffffffffff1663b7760c8f83336040518363ffffffff1660e01b815260040161047a929190610cb6565b600060405180830381600087803b15801561049457600080fd5b505af11580156104a8573d6000803e3d6000fd5b5050505081600660003373ffffffffffffffffffffffffffffffffffffffff1673ffffffffffffffffffffffffffffffffffffffff16815260200190815260200160002060008282546104fb9190610be0565b9250508190555081600760008282546105149190610be0565b925050819055507f8353ffcac0876ad14e226d9783c04540bfebf13871e868157d2a391cad98e918823360405161054c929190610cb6565b60405180910390a15050565b600160009054906101000a900473ffffffffffffffffffffffffffffffffffffffff1681565b600260009054906101000a900473ffffffffffffffffffffffffffffffffffffffff1681565b60075481565b60008054906101000a900473ffffffffffffffffffffffffffffffffffffffff1681565b60066020528060005260406000206000915090505481565b336000600660008373ffffffffffffffffffffffffffffffffffffffff1673ffffffffffffffffffffffffffffffffffffffff168152602001908152602001600020541115610779576000600360008373ffffffffffffffffffffffffffffffffffffffff1673ffffffffffffffffffffffffffffffffffffffff168152602001908152602001600020544361067c9190610be0565b90506000600754600660008573ffffffffffffffffffffffffffffffffffffffff1673ffffffffffffffffffffffffffffffffffffffff16815260200190815260200160002054600554846106d19190610c14565b6106db9190610c14565b6106e59190610c85565b9050600260009054906101000a900473ffffffffffffffffffffffffffffffffffffffff1673ffffffffffffffffffffffffffffffffffffffff166394bf804d82856040518363ffffffff1660e01b8152600401610744929190610cb6565b600060405180830381600087803b15801561075e57600080fd5b505af1158015610772573d6000803e3d6000fd5b5050505050505b43600360008373ffffffffffffffffffffffffffffffffffffffff1673ffffffffffffffffffffffffffffffffffffffff168152602001908152602001600020819055506000821015610801576040517f08c379a00000000000000000000000000000000000000000000000000000000081526004016107f890610da8565b60405180910390fd5b600260009054906101000a900473ffffffffffffffffffffffffffffffffffffffff1673ffffffffffffffffffffffffffffffffffffffff166323b872dd3330856040518463ffffffff1660e01b815260040161086093929190610dc8565b600060405180830381600087803b15801561087a57600080fd5b505af115801561088e573d6000803e3d6000fd5b5050505081600660003373ffffffffffffffffffffffffffffffffffffffff1673ffffffffffffffffffffffffffffffffffffffff16815260200190815260200160002060008282546108e19190610dff565b9250508190555081600760008282546108fa9190610dff565b925050819055507f9e71bc8eea02a63969f509818f2dafb9254532904319f9dbda79b67bd34a5f3d3383604051610932929190610e33565b60405180910390a15050565b600160009054906101000a900473ffffffffffffffffffffffffffffffffffffffff1673ffffffffffffffffffffffffffffffffffffffff163373ffffffffffffffffffffffffffffffffffffffff16146109ce576040517f08c379a00000000000000000000000000000000000000000000000000000000081526004016109c590610ece565b60405180910390fd5b8060058190555050565b60036020528060005260406000206000915090505481565b600080fd5b6000819050919050565b610a08816109f5565b8114610a1357600080fd5b50565b600081359050610a25816109ff565b92915050565b600060208284031215610a4157610a406109f0565b5b6000610a4f84828501610a16565b91505092915050565b600073ffffffffffffffffffffffffffffffffffffffff82169050919050565b6000610a8382610a58565b9050919050565b610a9381610a78565b82525050565b6000602082019050610aae6000830184610a8a565b92915050565b6000819050919050565b6000610ad9610ad4610acf84610a58565b610ab4565b610a58565b9050919050565b6000610aeb82610abe565b9050919050565b6000610afd82610ae0565b9050919050565b610b0d81610af2565b82525050565b6000602082019050610b286000830184610b04565b92915050565b610b37816109f5565b82525050565b6000602082019050610b526000830184610b2e565b92915050565b610b6181610a78565b8114610b6c57600080fd5b50565b600081359050610b7e81610b58565b92915050565b600060208284031215610b9a57610b996109f0565b5b6000610ba884828501610b6f565b91505092915050565b7f4e487b7100000000000000000000000000000000000000000000000000000000600052601160045260246000fd5b6000610beb826109f5565b9150610bf6836109f5565b9250828203905081811115610c0e57610c0d610bb1565b5b92915050565b6000610c1f826109f5565b9150610c2a836109f5565b9250828202610c38816109f5565b91508282048414831517610c4f57610c4e610bb1565b5b5092915050565b7f4e487b7100000000000000000000000000000000000000000000000000000000600052601260045260246000fd5b6000610c90826109f5565b9150610c9b836109f5565b925082610cab57610caa610c56565b5b828204905092915050565b6000604082019050610ccb6000830185610b2e565b610cd86020830184610a8a565b9392505050565b600082825260208201905092915050565b7f696e73756666696369656e74207374616b656420746f6b656e00000000000000600082015250565b6000610d26601983610cdf565b9150610d3182610cf0565b602082019050919050565b60006020820190508181036000830152610d5581610d19565b9050919050565b7f63616e6e6f74207374616b65203020616d6f756e740000000000000000000000600082015250565b6000610d92601583610cdf565b9150610d9d82610d5c565b602082019050919050565b60006020820190508181036000830152610dc181610d85565b9050919050565b6000606082019050610ddd6000830186610a8a565b610dea6020830185610a8a565b610df76040830184610b2e565b949350505050565b6000610e0a826109f5565b9150610e15836109f5565b9250828201905080821115610e2d57610e2c610bb1565b5b92915050565b6000604082019050610e486000830185610a8a565b610e556020830184610b2e565b9392505050565b7f596f7520617265206e6f7420617574686f72697a656420746f206d616e61676560008201527f207468697320636f6e7472616374000000000000000000000000000000000000602082015250565b6000610eb8602e83610cdf565b9150610ec382610e5c565b604082019050919050565b60006020820190508181036000830152610ee781610eab565b905091905056fea2646970667358221220e4a3a48555d6faa051ae824f2e739226bbc2eead477817d26055495f4a45dda064736f6c634300081c0033",
  "linkReferences": {},
  "deployedLinkReferences": {}
}